:020000040800F2
:1000000010020020D5000008CF020008CB02000833
:1000100000000000000000000000000000000000E0
:100020000000000000000000000000004103000884
:100030000000000000000000D10200088104000858
:10004000E700000800000000E7000008E7000008E3
:10005000E7000008E7000008E7000008E7000008E4
:10006000E7000008E7000008E7000008E7000008D4
:10007000E7000008E7000008E7000008E7000008C4
:1000800000000000E7000008000000000000000081
:1000900000000000E7000008E7000008E700000893
:1000A00000000000E7000008000000004D08000804
:1000B0000000000000000000000000000000000040
:1000C0000348854600F02AF8004800476D080008FC
:1000D000100200200448804704480047FEE7FEE77E
:1000E000FEE7FEE7FEE7FEE785040008C100000822
:1000F00030B50B46014600202022012409E00D46C0
:10010000D5409D4205D31D469540491B2546954047
:1001100040191546521E002DF1DC30BD064C01255C
:10012000064E05E0E36807CC2B430C3C984710349F
:10013000B442F7D3FFF7C8FF7C0800089C0800080A
:100140000EB50E2000900221684601710121417117
:1001500000218171C17169460920C00600F040F894
:10016000032201210920C00600F08DF8032202219C
:100170000920C00600F087F8032211460920C006B6
:1001800000F081F8C02000906946124800F028F87D
:10019000032206210F4800F076F8032207210D48BC
:1001A00000F071F80820009069460B4800F018F83C
:1001B00003221146084800F066F8202000906946A6
:1001C000064800F00DF803220521044800F05BF812
:1001D0000EBD000000080048000C00480004004864
:1001E000F0B500220023002400BF3DE0012595402A
:1001F0002B460D681D402C469C4234D10D79012DB3
:1002000002D00D79022D16D1856857000326BE4015
:10021000B54385604D795600B540866835438560A5
:10022000456801269640B543456045688E799640FD
:10023000B6B235434560056857000326BE40B54356
:1002400005600D795600B540066835430560C56800
:1002500057000326BE40B543C560CD795600B54072
:10026000C6683543C560521C102ABFD30D7A002DD5
:1002700004D1056B0E683543056303E0056B0E681A
:10028000B5430563F0BDF0B5002300244D07EE0E25
:100290001546B5402B46CD10AE0005462035AD596C
:1002A0004E07F70E0F26BE40B543CE10B6000746E8
:1002B0002037BD51CD10AE003D46AD591D432C46F3
:1002C000CD10AD003E467451F0BD00BFFEE7704753
:1002D00070470000002905D0054A52690243044BCB
:1002E0005A6104E0024A52698243014B5A617047E5
:1002F00000100240002905D0054A92690243044BD0
:100300009A6104E0024A92698243014B9A61704704
:100310000010024010B501214804FFF7DBFF012166
:100320008804FFF7D7FF0121C804FFF7D3FF01219D
:100330000805FFF7CFFF0121C802FFF7DBFF10BD63
:1003400070470000F8B50025002600270020009027
:1003500000240E48056A280C0090ACB2009820409A
:1003600000280FD10A4807680A480740E006000E37
:100370006105890E090208430646054800683043B6
:100380000349086000F008F8F8BD000000F8FF1FFE
:10039000001002400700FFFF85B00020049003908A
:1003A00002900190009033480068012108433149D0
:1003B00008603048C030806A0F21C90288432D4947
:1003C000C03188620846806A0721C902084329496A
:1003D000C031886200BF27480068022108400390AE
:1003E0000498401C04900398002803D122490498E3
:1003F0008842F0D11F48006802210840002802D03E
:100400000120039001E000200390039801282FD1E0
:100410001A48006802900298C008C00002900221A9
:100420000298084315490860124840680190F0217D
:100430000198884301900F49019848600846406838
:10044000009007210902009888430090094900980C
:100450004860084640688008800048600846406858
:10046000486000BF034840680C2108400028F9D1CB
:1004700005B0704700100240FFFF0000002002405E
:100480007047000010B50D480068012108430B4972
:100490000860084640680A4908400849486008461C
:1004A000006B132188430549086300208860FFF72B
:1004B00049FF00200349486310BD000000100240BE
:1004C0001CB8FFF8402002400A884B881A438B88EA
:1004D0001A43CB881A430B891A434B891A438B89D9
:1004E0001A43426470470000002904D002680123C7
:1004F0001A43026003E00268014B1A400260704731
:10050000FEFF000000B58DB03D493E480068FFF792
:10051000EFFD401E3C4908800988491E8A00881862
:100520000A21FFF7E5FD3949088037490988491E46
:10053000FF227832514308467D21C900FFF7D8FDDC
:100540003349088030490988491E19225143084619
:100550006421FFF7CDFD2F49088000216846018501
:100560004185294800880B906846018608A8817457
:100570000AA9294800F040F97021684681820121CA
:10058000C182042101832148008807900221684626
:10059000018408214184490181840021C18405A985
:1005A0001D4800F049F81A480088079005A91A4824
:1005B00000F07EF817480088079005A9164800F05B
:1005C000CBF80121C902684681804910C180891099
:1005D0000181322141810121090381814900C181C9
:1005E0004900018201A90C48FFF76EFF01210A486A
:1005F000FFF77AFF0121084800F010F80DB000BDA8
:10060000102700000C000020000000200200002045
:100610000400002006000020002C0140002905D025
:10062000426C0123DB031A43426403E0426C520430
:10063000520C42647047000070B500240022002371
:10064000056A184E35400562056AAAB24568ABB224
:100650008569ACB2134D6F3D2C40B51E2C400D8802
:100660002C43751E2A408D892A434D882A430E4DFE
:10067000A84210D1F51F2A40CD892A43F51E2A40F1
:100680008D882A43074DFF3D2B40084D2B400D8A96
:100690002B434D8A2B43436084618D68456302621E
:1006A00070BD0000FEFF0000002C0140FFFD0000B7
:1006B00070B5002400220023056A214E35400562F2
:1006C000056AAAB24568ABB28569ACB21D4D2C4033
:1006D0001D4D2C400D782D062D0C2C43184D103D32
:1006E0002A408D892D052D0C2A434D882D052D0C72
:1006F0002A43164DA8421CD1154D2B400D8AAD043E
:100700002D0C2B430546A84213D10D4D703D2A40B8
:10071000CD892D052D0C2A43094D303D2A408D8869
:100720002D052D0C2A430B4D2B404D8AAD042D0C6D
:100730002B43436084618D688563026270BD000055
:10074000EFFF0000FF8F0000FFFC0000002C0140C5
:10075000FFFB0000FFF7000070B50024002200231B
:10076000056A1E4E35400562056AAAB24568ABB2FD
:10077000C569ACB2194D90352C40184DFD352C4053
:100780000D882C43164D2A400D7B2D062D0C2A4337
:100790008D782D062D0C2A43124DA84217D1124DEB
:1007A0002A408D7B2D062D0C2A43104D2A400D79B1
:1007B0002D062D0C2A430E4D2B400E4D2B400D8A3D
:1007C0002D052D0C2B434D8A2D052D0C2B434360FD
:1007D000C4618D68C563026270BD0000FFFE000049
:1007E000FFFD0000002C0140FFF70000FFFB0000B0
:1007F000FFEF0000FFDF0000002203689AB20F4BFA
:10080000984203D001239B07984203D10C4B1A4016
:100810004B881A430B4B984203D00B4B1A400B8961
:100820001A4302604B68C3620B888362034B984291
:1008300001D18B7A0363012343617047002C01408F
:100840008FFF000000100040FFFC0000704702E036
:1008500008C8121F08C1002AFAD17047704700204B
:1008600001E001C1121F002AFBD17047FFF752FDC2
:10087000FFF766FCFFF746FE00BFFEE79C08000896
:1008800000000020100000004E080008AC0800081E
:1008900010000020000200005E08000800000000B8
:0C08A00000000000000000000048E8011B
:04000005080000C12E
:00000001FF
