:020000040800F2
:1000000030020020D50000086D0700083104000808
:1000100000000000000000000000000000000000E0
:10002000000000000000000000000000710900084E
:100030000000000000000000E1070008B10A00080D
:10004000E700000800000000E7000008E7000008E3
:10005000E7000008E7000008E7000008E7000008E4
:10006000E7000008E7000008E7000008E7000008D4
:10007000E7000008E7000008E7000008E7000008C4
:1000800000000000E7000008000000000000000081
:1000900000000000E7000008E70000083504000841
:1000A00000000000E700000800000000F90A000856
:1000B0000000000000000000000000000000000040
:1000C0000348854600F06EF80048004751100008CC
:1000D000300200200448804704480047FEE7FEE75E
:1000E000FEE7FEE7FEE7FEE7B50A0008C1000008EC
:1000F00030B50B46014600202022012409E00D46C0
:10010000D5409D4205D31D469540491B2546954047
:1001100040191546521E002DF1DC30BD0321001D93
:10012000401E037812021A43491EF9D51046704743
:10013000034603220870000A491C521EFAD51846CD
:100140007047F0B51FB40646002082B00546402433
:10015000019100901BE0019922460F46304600F0C5
:1001600043F8049A059B801A994110D3104619460A
:10017000224600F029F8361A8F41019722460120C5
:100180000021009F00F020F838184D4100902046D3
:10019000641E0028DFDC019B00982946324607B028
:1001A000F0BD0000064C0125064E05E0E36807CCD3
:1001B0002B430C3C98471034B442F7D3FFF784FF2D
:1001C0001C1100083C11000810B5202A04DB014670
:1001D000203A9140002010BD914020239C1A0346F4
:1001E000E3401943904010BD10B5202A04DB0846B7
:1001F000203AD040002110BD0B46D340D0402024EF
:10020000A21A91400843194610BDF0B50022002300
:10021000002400BF3DE0012595402B460D681D40A0
:100220002C469C4234D10D79012D02D00D79022D3E
:1002300016D1856857000326BE40B54385604D79C9
:100240005600B5408668354385604568012696406E
:10025000B543456045688E799640B6B235434560F2
:10026000056857000326BE40B54305600D7956006A
:10027000B540066835430560C56857000326BE4093
:10028000B543C560CD795600B540C6683543C560F5
:10029000521C102ABFD30D7A002D04D1056B0E68B5
:1002A0003543056303E0056B0E68B5430563F0BD98
:1002B000F0B5002300244D07EE0E1546B5402B4641
:1002C000CD10AE0005462035AD594E07F70E0F266E
:1002D000BE40B543CE10B60007462037BD51CD1005
:1002E000AE003D46AD591D432C46CD10AD003E46F7
:1002F0007451F0BD00B58BB00121C80400F072FA52
:100300000121480500F07EFA602001900121684635
:100310004172022101720121C172817201A9174843
:10032000FFF773FF002205211448FFF7C1FF0022E9
:1003300006211248FFF7BCFF172168460170012112
:100340004170817000F014FA0122FE210C4800F087
:10035000CDF90C4804900020059006900790B0203D
:100360000890002009900A9004A9054800F0C8F9F7
:100370000121034800F0AEF90BB000BD00080048B1
:10038000005400400705210000B589B0012108058F
:1003900000F028FA0121480400F024FA0121880322
:1003A00000F040FA012203210920C006FFF780FF78
:1003B000012206211B48FFF77BFF022168460177D7
:1003C0000021817740200690012168464177C1775E
:1003D00006A91448FFF719FF0820069006A909206E
:1003E000C006FFF712FFE1204002009000200590B8
:1003F0000C200490002003900290019069460A4866
:1004000000F002FC0121084800F06FFC01220749BE
:10041000054800F0D7FB0121034800F096FB09B026
:1004200000BD0000000C0048003801400501050037
:1004300000BFFEE770B500249A488469FE21214080
:1004400008469949FFF774FE072109022140084632
:100450009549091DFFF76CFE9348FFF75FFE0821E1
:100460000840002824D08F4800F032F98D48806978
:1004700001210904084000280CD08B48001FFFF719
:100480004DFE0121C907084305468749091FFFF7AB
:100490004FFE0DE08448001FFFF740FE45006D0849
:1004A0008149091F2846FFF743FE00207F49087055
:1004B0007D48FFF733FE02210840002820D07C4809
:1004C0000078002819D17B4800780A2811DA7A4888
:1004D00078490978405C7349886276480078401C06
:1004E00074490870084600780A2809DB0020087063
:1004F00006E0FB206B49886202E0FA2069498862C5
:100500006948FFF70BFE04210840002839D06748EE
:100510000078002825D06648007800281AD1654860
:1005200000780A2811DA5F48406A6449614A127803
:10053000885460480078401C5E490870084600787E
:100540000A281EDB002008701BE05648406A5C4900
:10055000087016E05348406A594908700020087036
:100560000FE05048406A57490870084600785049E3
:10057000087000204F4908704C480078401C4B49D7
:1005800008704948FFF7CAFD10210840002815D01F
:10059000444800F09DF845480078002802D000202B
:1005A000424908704048001FFFF7B8FD0121490784
:1005B000084305463C49091FFFF7BAFD3A48FFF7D3
:1005C000ADFD20210840002823D0384800780028BD
:1005D00002D00020354908703348001FFFF79EFD08
:1005E000C00FC007002808D13748007800280CD178
:1005F000304800783449087007E034480078002813
:1006000003D12C480078314908702021254800F09A
:100610005FF82548001DFFF781FDFF2101310840EB
:1006200000280ED008461F49C8611F48001FFFF769
:1006300075FD0121C906084305461B49091FFFF73F
:1006400077FD1948001DFFF769FD012149020840A7
:1006500000280ED008461349C8611348001FFFF751
:100660005DFD0121C906084305460F49091FFFF733
:100670005FFD0D48001DFFF751FD01218902084073
:1006800000280ED008460749C8610748001FFFF739
:1006900045FD0121C906084305460349091FFFF727
:1006A00047FD70BD005400401C00002000000020E9
:1006B000030000200400002005000020240000208A
:1006C00002000020010000200F0000201000002088
:1006D000C1617047002904D0026801231A430260F7
:1006E00003E002685208520002607047002A03D0FB
:1006F00003680B43036002E003688B4303607047A9
:1007000010B50A46002103685B085B0003600168BE
:10071000144B194094682402536823431943016021
:100720000F2424061368A3430361036801242343B1
:10073000036000218160C1601469936923431946F5
:10074000816083680124E40323438360D1680368E4
:100750000B4303604168044B1940536919434160DE
:1007600010BD0000FFE0CF00FF7FFF0770470000D3
:1007700000218278002A27D0184A03231B02D218AE
:1007800003789B109B00D15802789207D30EFF226A
:100790009A400B469343194642789207120E03780B
:1007A0009B07DB0E9A4011430C4A03231B02D2180D
:1007B00003789B109B00D1500278D306DB0E0122F8
:1007C0009A40064B1A6007E00278D306DB0E01223E
:1007D0009A40024B80331A607047000000E100E04D
:1007E00070470000002905D0054A52690243044BB6
:1007F0005A6104E0024A52698243014B5A617047D0
:1008000000100240002905D0054AD2690243044B7A
:10081000DA6104E0024AD2698243014BDA6170472F
:1008200000100240002905D0054A92690243044B9A
:100830009A6104E0024A92698243014B9A617047CF
:100840000010024070B5044600250026414840686B
:100850000C2108400546002D04D0042D05D00C2D98
:1008600009D105E03C48206008E03B48206005E0F5
:100870003A48206000BF3848206000BF00BF3548BC
:100880004068F021084005462D09680034490E5A99
:1008900031462068FFF72CFC60602E484068072135
:1008A0000902084005462D0A2E48465D6068F04062
:1008B000A0602D480069800F800700280DD12548D1
:1008C000C030806A1F21890608400546AD0EA91C6C
:1008D0002648FFF70DFCE06016E023480069800F12
:1008E000800701218907884203D0A0684008E060A2
:1008F0000AE01D480069800F80070121C90788426E
:1009000002D0A0688008E0601248006B1021084007
:10091000102802D01048206101E0206820610D48B5
:10092000006B8007800F002802D1A068606110E092
:100930000848006B8007800F012802D120686061A1
:1009400007E00448006B8007800F032801D10248AC
:10095000606170BD001002400048E80150BD010018
:10096000F410000814110008002401400090D00386
:1009700070470000F8B500250026002700200090F1
:1009800000240E48056A280C0090ACB20098204064
:1009900000280FD10A4807680A480740E006000E01
:1009A0006105890E09020843064605480068304380
:1009B0000349086000F008F8F8BD000000F8FF1FC8
:1009C000001002400700FFFF85B000200490039054
:1009D000029001900090334800680121084331499A
:1009E00008603048C030806A0F21C90288432D4911
:1009F000C03188620846806A0721C9020843294934
:100A0000C031886200BF2748006802210840039077
:100A10000498401C04900398002803D122490498AC
:100A20008842F0D11F48006802210840002802D007
:100A30000120039001E000200390039801282FD1AA
:100A40001A48006802900298C008C0000290022173
:100A50000298084315490860124840680190F02147
:100A60000198884301900F49019848600846406802
:100A700000900721090200988843009009490098D6
:100A80004860084640688008800048600846406822
:100A9000486000BF034840680C2108400028F9D195
:100AA00005B0704700100240FFFF00000020024028
:100AB0007047000010B50D480068012108430B493C
:100AC0000860084640680A490840084948600846E6
:100AD000006B132188430549086300208860FFF7F5
:100AE00049FF00200349486310BD00000010024088
:100AF0001CB8FFF84020024010B500240C490D48F6
:100B000000F039F8012807D109490A4800F014F823
:100B1000084800F0E5F8C4B22146064800F0F3F8B2
:100B200000BF8021034800F01CF80028F9D010BD58
:100B3000050105000038014010B5002300220B0C10
:100B400001249C402246026210BD002904D00268A4
:100B500001231A43026003E0026852085200026057
:100B6000704702460020D3690B40002B01D00120C2
:100B700000E00020704770B502460B4600240021BB
:100B8000002500201E04350ED9B201268E403146C4
:100B9000012D02D11668314006E0022D02D15668BF
:100BA000314001E0966831401C0C0126A6403446D5
:100BB000D6693440002903D0002C01D0012000E088
:100BC000002070BDF8B503460024002600960025DD
:100BD000002018460E04340ECEB200960127009E67
:100BE000B7403D46022C01D1001D02E0032C00D18C
:100BF0000830002A03D006682E43066002E006682B
:100C0000AE430660F8BD0000F0B587B004460D465F
:100C10000027002006900026206840084000206041
:100C2000666803210903304688430646A8680643E0
:100C30006660266827480640E968686808432969AD
:100C4000084306432660A66803210902304688430C
:100C5000064668690643A6606846FFF7F3FD1E482E
:100C6000844202D10598069001E00298069020681F
:100C70000121C903084000280CD02968069A5000B9
:100C8000FFF736FA07462968069A5000FFF730FA50
:100C90000E4609E029680698FFF72AFA07462968F0
:100CA0000698FFF725FA0E4628684008B04200D89B
:100CB0007F1C20680121C9030840002806D038079E
:100CC000460F38460549084030430746B8B2E06051
:100CD00007B0F0BDF3E9FFFF00380140F0FF00006E
:100CE0000146486AC005C00D7047002905D042681A
:100CF0000123DB031A43426004E042680123DB0363
:100D00009A4342607047CA05D20D82627047000064
:100D10000FB410B503A9044B044A029800F018F868
:100D200010BC08BC04B018472D10000814000020A7
:100D300002E008C8121F08C1002AFAD170477047A4
:100D4000002001E001C1121F002AFBD17047000002
:100D5000FFB58FB00F460446002606E025280AD0CE
:100D6000129A11999047641C761C20780028F5D1BE
:100D7000304613B0F0BD00250121A14A009500E0E6
:100D80000543641C23780846203B98401042F7D165
:100D900020782E2815D1042005436078641C2A2869
:100DA0000AD101CF641C00900BE000990A22514344
:100DB00030394018641C00902078014630390929E8
:100DC000F3D920786C280ED004DC4C2813D06A2884
:100DD00012D104E074280ED07A280DD10BE0012046
:100DE0004005054307E00121090562780D43824271
:100DF00001D16D18641C641C2078864669284AD08D
:100E000008DC0028B4D058286DD0632810D064289E
:100E100008D140E070286BD0732812D0752860D0BC
:100E2000782860D0129A704611999047761CE5E0B8
:100E30003878694608720020487202A801900120A3
:100E400003E0386801900020C0433F1D69070CD5BE
:100E5000002500E06D1C00998D420FDA8542F9DB18
:100E60000199495D0029F5D108E0002500E06D1CDD
:100E70008542FCDB0199495D0029F8D1761907E02C
:100E8000019801990078491C0191129A1199904793
:100E90006D1EF5D2B2E00A20029000216802400FD8
:100EA000039102280CD001CFC117844600290DDA26
:100EB0006246084652420021814194462D2008E0B6
:100EC000FF1DFF08FF0003CF8446EFE7280504D588
:100ED0002B206A46107401203CE0E8073AD020201D
:100EE000F7E70A2000E0102000210391029007E0BC
:100EF0001020029000210420054308200391009057
:100F00006802400F022810D001CF00218446002043
:100F10000D9028071FD5704670280CD0029A10201B
:100F2000039B42401A430CD015E0FF1DFF08FF0051
:100F300003CF8446EBE740206A46107401200D90F1
:100F40000CE06046084306D030206A4610747046B4
:100F5000507402200D907046582804D029A00190AA
:100F60000DA80E900DE02CA0F9E76046039B029AB5
:100F7000FFF7E7F8019B84469B5C0E9A521E0E9287
:100F8000137060460843F0D10E9805A9081A203066
:100F90000190680701D5009801E0012000900199B7
:100FA000884203DD01460198081A00E00020002570
:100FB000009006E004A8129A405D119990476D1CBC
:100FC000761C0D988542F5DB04E0129A30201199C9
:100FD0009047761C0099481E00900029F5DC08E037
:100FE0000E980E990078491C0E91129A119990470B
:100FF000761C0199481E01900029F1DC641CB4E6BE
:1010000009280100303132333435363738396162DE
:1010100063646566000000003031323334353637A2
:1010200038394142434445460000000070B504464B
:101030000D46E1B20548FFF766FE00BF8021034878
:10104000FFF78FFD0028F9D0204670BD0038014021
:101050000EB500BF00240020009001900290FFF721
:1010600093F9FFF747F92DE017480078002812DDC3
:1010700016A0FFF74DFE002406E01648015D16A0FD
:10108000FFF746FE601CC4B20F4800788442F4DBD0
:1010900000200D49087012480078002812DD11A0C8
:1010A000FFF736FE002406E01148015D0AA0FFF7B5
:1010B0002FFE601CC4B20A4800788442F4DB002092
:1010C00007490870D0E70000100000200D0A736582
:1010D0006E643A0005000020093078257820000071
:1010E0000F0000200D0A726563656976653A00009D
:1010F00024000020010006000100010001000100A1
:1011000001000100020004000800100040008000FF
:101110000001000200000000010203043C1100086D
:101120000000002018000000300D000854110008D5
:101130001800002018020000400D00080000000008
:101140000020212223242526272829000000000032
:04115000000000009B
:04000005080000C12E
:00000001FF
