:020000040800F2
:1000000080060020590100088F0200088B020008BA
:1000100000000000000000000000000000000000E0
:100020000000000000000000000000002D03000898
:100030000000000000000000090300082D04000873
:100040006B010008000000006B0100086B01000854
:100050006B0100086B0100086B0100086B010008D0
:10006000000000006B0100086B0100086B01000834
:100070006B0100086B0100086B0100080000000024
:100080006B0100086B010008000000006B01000814
:100090006B0100086B0100086B0100086B01000890
:1000A0006B0100086B0100086B0100086B01000880
:1000B0006B01000800F002F800F03EF80CA030C818
:1000C000083824182D18A246671EAB4654465D46D4
:1000D000AC4201D100F030F87E460F3E0FCCB64660
:1000E0000126334200D0FB1AA246AB4633431847E1
:1000F0003005000050050000103A02D378C878C1DE
:10010000FAD8520701D330C830C101D504680C6059
:10011000704700000023002400250026103A01D378
:1001200078C1FBD8520700D330C100D50B607047AF
:100130001FB51FBD10B510BD00F02DF81146FFF71B
:10014000F7FF00F04BFA00F045F803B4FFF7F2FFB9
:1001500003BC00F04BF80000074880470748004701
:10016000FEE7FEE7FEE7FEE7FEE7FEE70448054997
:10017000054A064B7047000031040008B50000082E
:1001800080000020800600208002002080020020E5
:10019000704770477047754600F024F8AE4605007A
:1001A00069465346C008C000854618B020B5FFF721
:1001B000DDFF60BC00274908B6460026C0C5C0C5A3
:1001C000C0C5C0C5C0C5C0C5C0C5C0C5403D49004B
:1001D0008D46704710B50446C046C0462046FFF71E
:1001E000B4FF10BD004870472000002001491820CE
:1001F000ABBEFEE7260002007047F0B50A460021BC
:100200000023002400BF3DE001258D402B461568EA
:100210001D402C469C4234D11579012D02D0157910
:10022000022D16D185684F000326BE40B543856078
:1002300055794E00B540866835438560858801262E
:100240008E40B5438580858896798E40B6B2354319
:10025000858005684F000326BE40B54305601579CB
:100260004E00B540066835430560C5684F0003265B
:10027000BE40B543C560D5794E00B540C66835432C
:10028000C560491C1029BFD3F0BD00BFFEE7704711
:1002900010B5002819DA1A4A03071B0F083B9B0800
:1002A0009B00D2588307DC0EFF23A3409A438B07A1
:1002B0001B0E8407E40EA3401A43114B0407240FBE
:1002C000083CA408A4001A5118E00E4A03231B029C
:1002D000D21883089B00D2588307DC0EFF23A3406B
:1002E0009A438B071B0E8407E40EA3401A43054B69
:1002F000032424021B198408A4001A5110BD000015
:100300001CED00E000E100E070470000002905D08E
:10031000054A52690243044B5A6104E0024A526999
:100320008243014B5A617047001002407047000041
:100330000CB50020019000903148006801210904AB
:1003400008432F49086000BF2D4800680121490477
:10035000084000900198401C01900098002804D1AA
:100360000521090301988842EED125480068012142
:1003700049040840002802D00120009001E000203C
:1003800000900098012839D111201E4908601C48AE
:1003900040681B4948600846406848600846406815
:1003A0007F21C903884316494860084640681D21DB
:1003B00009040843124948600846006801210906FB
:1003C00008430F49086000BF0D4800680121490635
:1003D00008400028F8D00A48406880088000084992
:1003E000486008464068022108430549486000BF4C
:1003F000034840680C2108400828F9D10CBD0000D2
:100400000010024000200240042806D10649096974
:1004100004221143044A116105E0034909690422D9
:100420009143014A1161704700E000E0704700000D
:1004300010B51B48006801210843194908600846A7
:10044000406818490840164948600846006816493F
:100450000840134908600846006801218904884360
:100460000F490860084640683F21090488430C4949
:1004700048600846C06A00090001C8620846006B6F
:10048000FF2154318843064908630846406B400801
:100490004000486300208860FFF74AFF10BD00005D
:1004A000001002400CB8FFF8FFFFF6FEFEB507464D
:1004B0000C4615461E4601213846FFF727FF0095DA
:1004C000002168460171C67169462046FFF795FE16
:1004D000FEBD7CB506460C46154601213046FFF7A9
:1004E00015FF0095012168460171002181710321EA
:1004F00041710121C17169462046FFF77EFE7CBD36
:1005000010B50446204600F029F810BD70B5044629
:10051000002C02D11520C04370BD0025207B00288F
:1005200004D1204607C8FFF7D4FF04E0012320468A
:1005300007C8FFF7BBFF2846EEE770B504460D4637
:10054000002C02D11520C04370BD00262A46A168A8
:10055000606800F05FF83046F6E70000002100BF59
:1005600015E00C4A12680C4B5A6100221A619A611C
:1005700001221A6100BF084A126901231B041A40B4
:10058000002AF8D00022044B1A619A61491C81426A
:10059000E7D370471C00002000E000E010B5042005
:1005A000C043FFF731FF0321081FFFF771FE084921
:1005B0000888C117490F0918C910064A116010466A
:1005C000008880B27D21C90048430349086010BDFE
:1005D00014000020180000201C00002000F016F875
:1005E0000948FFF793FF0EE001210748FFF7A5FF39
:1005F0006420FFF785FF00210348FFF79EFF7D2061
:10060000C000FFF77DFFEFE70000002010B5FFF707
:10061000C5FF10BD002A01D0816100E0018570474F
:10062000400600080000002020000000F80000083C
:100630006006000820000020600600001401000889
:100640000000080000080048002000000000000032
:100650000000000048000000000000000000000052
:04000005080000B53A
:00000001FF
