:020000040800F2
:1000000078060020590100084D040008EF0300089D
:1000100000000000000000000000000000000000E0
:100020000000000000000000000000007104000853
:1000300000000000000000004F04000871050008E7
:100040006B010008000000006B0100086B01000854
:100050006B0100086B0100086B0100086B010008D0
:10006000000000006B0100086B0100086B01000834
:100070006B0100086B0100086B0100080000000024
:100080006B0100086B010008000000006B01000814
:100090006B0100086B0100086B0100086B01000890
:1000A0006B0100086B0100086B0100086B01000880
:1000B0006B01000800F002F800F03EF80CA030C818
:1000C000083824182D18A246671EAB4654465D46D4
:1000D000AC4201D100F030F87E460F3E0FCCB64660
:1000E0000126334200D0FB1AA246AB4633431847E1
:1000F000B0050000D0050000103A02D378C878C1DE
:10010000FAD8520701D330C830C101D504680C6059
:10011000704700000023002400250026103A01D378
:1001200078C1FBD8520700D330C100D50B607047AF
:100130001FB51FBD10B510BD00F0DAF81146FFF76E
:10014000F7FF00F09DFA00F0F2F803B4FFF7F2FFBA
:1001500003BC00F0F9F80000074880470748004753
:10016000FEE7FEE7FEE7FEE7FEE7FEE70448054997
:10017000054A064B7047000075050008B5000008E9
:100180007800002078060020780200207802002005
:10019000002203098B422CD3030A8B4211D3002384
:1001A0009C464EE003460B433CD4002243088B425E
:1001B00031D303098B421CD3030A8B4201D39446EB
:1001C0003FE0C3098B4201D3CB01C01A52418309DE
:1001D0008B4201D38B01C01A524143098B4201D398
:1001E0004B01C01A524103098B4201D30B01C01AC3
:1001F0005241C3088B4201D3CB00C01A524183083D
:100200008B4201D38B00C01A524143088B4201D369
:100210004B00C01A5241411A00D2014652411046C9
:1002200070475DE0CA0F00D04942031000D340423E
:10023000534000229C4603098B422DD3030A8B4274
:1002400012D3FC22890112BA030A8B420CD3890112
:1002500092118B4208D3890192118B4204D38901F8
:100260003AD0921100E08909C3098B4201D3CB0136
:10027000C01A524183098B4201D38B01C01A5241EB
:1002800043098B4201D34B01C01A524103098B42EF
:1002900001D30B01C01A5241C3088B4201D3CB00DA
:1002A000C01A524183088B4201D38B00C01A5241BD
:1002B000D9D243088B4201D34B00C01A5241411A94
:1002C00000D20146634652415B10104601D34042C2
:1002D000002B00D54942704763465B1000D3404273
:1002E00001B50020C046C04602BD70477047704748
:1002F000754600F025F8AE46050069465346C0082D
:10030000C000854618B020B5FFF730FF60BC00275D
:100310004908B6460026C0C5C0C5C0C5C0C5C0C5D1
:10032000C0C5C0C5C0C5403D49008D46704710B529
:100330000446C046C0462046FFF707FF10BD000038
:10034000004870471800002001491820ABBEFEE7A6
:10035000260002007047F0B50A4600210023002461
:1003600000BF3DE001258D402B4615681D402C4601
:100370009C4234D11579012D02D01579022D16D168
:1003800085684F000326BE40B543856055794E0011
:10039000B540866835438560858801268E40B54323
:1003A0008580858896798E40B6B23543858005680C
:1003B0004F000326BE40B543056015794E00B54099
:1003C000066835430560C5684F000326BE40B54347
:1003D000C560D5794E00B540C6683543C560491C37
:1003E0001029BFD3F0BD018570478161704700BF00
:1003F000FEE700001CB50121C80400F029F8012027
:1004000040030090012168460171002181710321A0
:10041000417169460248FFF79EFF00F003F81CBDDA
:100420000008004810B5012149030248FFF7DDFF2D
:1004300010BD00000008004810B501214903024822
:10044000FFF7D1FF10BD000000080048704770475B
:10045000002905D0054A52690243044B5A6104E061
:10046000024A52698243014B5A61704700100240B0
:10047000704700000CB500200190009031480068E2
:100480000121090408432F49086000BF2D48006876
:1004900001214904084000900198401C01900098F7
:1004A000002804D10521090301988842EED125488E
:1004B0000068012149040840002802D00120009072
:1004C00001E0002000900098012839D111201E4938
:1004D00008601C4840681B494860084640684860FE
:1004E000084640687F21C90388431649486008468A
:1004F0004068112109040843124948600846006811
:100500000121090608430F49086000BF0D48006833
:100510000121490608400028F8D00A4840688008B0
:1005200080000849486008464068022108430549A0
:10053000486000BF034840680C2108400828F9D1F2
:100540000CBD00000010024000200240042806D12B
:100550000649096904221143044A116105E003496F
:10056000096904229143014A1161704700E000E0EB
:100570007047000010B51B48006801210843194965
:10058000086008464068184908401649486008460F
:1005900000681649084013490860084600680121B0
:1005A000890488430F490860084640683F210904D0
:1005B00088430C4948600846C06A00090001C862C7
:1005C0000846006BFF2154318843064908630846FA
:1005D000406B40084000486300208860FFF74AFFF6
:1005E00010BD0000001002400CB8FFF8FFFFF6FE3F
:1005F00010B50420C043FFF7A9FF08490848006868
:10060000FFF7C6FD40B207490870002008567D215B
:10061000C900484300B20449088010BD00127A00A6
:100620000400002000000020020000200146124AC1
:100630000023D35E0A465A43104B5A6100229A6146
:100640001A46126901231A430C4B1A6100BF0B4A68
:100650001069C207D20F002A04D0012212040240FE
:10066000002AF4D0054A126952085200034B1A615D
:1006700000229A61704700000200002000E000E0C4
:10068000FFF7B6FFFFF7B6FE09E0FFF7D5FE322011
:10069000FFF7CCFFFFF7C6FE3220FFF7C7FFF4E7F6
:1006A000C00600080000002018000000F800000844
:1006B000D806000818000020600600001401000899
:1006C00000000000006CDC020000000000000000E0
:0806D0000102030406070809FA
:04000005080000B53A
:00000001FF
