:020000040800F2
:1000000000020020D5000008BF010008BB01000865
:1000100000000000000000000000000000000000E0
:10002000000000000000000000000000E5010008E2
:100030000000000000000000C101000825030008C6
:10004000E700000800000000E7000008E7000008E3
:10005000E7000008E7000008E7000008E7000008E4
:10006000E7000008E7000008E7000008E7000008D4
:10007000E7000008E7000008E7000008E7000008C4
:1000800000000000E7000008000000000000000081
:1000900000000000E7000008E7000008E700000893
:1000A00000000000E700000800000000E700000872
:1000B0000000000000000000000000000000000040
:1000C0000348854600F014F800480047F103000893
:1000D000000200200448804704480047FEE7FEE78E
:1000E000FEE7FEE7FEE7FEE729030008C10000087F
:1000F000064C0125064E05E0E36807CC2B430C3C7B
:1001000098471034B442F7D3FFF7DEFF2C04000801
:100110003C040008F0B500220023002400BF3DE0AD
:10012000012595402B460D681D402C469C4234D13C
:100130000D79012D02D00D79022D16D18568570059
:100140000326BE40B54385604D795600B5408668AC
:1001500035438560456801269640B543456045684E
:100160008E799640B6B23543456005685700032640
:10017000BE40B54305600D795600B540066835436D
:100180000560C56857000326BE40B543C560CD79FC
:100190005600B540C6683543C560521C102ABFD30F
:1001A0000D7A002D04D1056B0E683543056303E01D
:1001B000056B0E68B5430563F0BD00BFFEE77047F1
:1001C00070470000002905D0054A52690243044BDC
:1001D0005A6104E0024A52698243014B5A617047F6
:1001E0000010024070470000F8B5002500260027E7
:1001F0000020009000240E48056A280C0090ACB244
:100200000098204000280FD10A4807680A48074094
:10021000E006000E6105890E0902084306460548FE
:10022000006830430349086000F008F8F8BD00009A
:1002300000F8FF1F001002400700FFFF85B00020FC
:1002400004900390029001900090334800680121CF
:100250000843314908603048C030806A0F21C90224
:1002600088432D49C03188620846806A0721C90247
:1002700008432949C031886200BF2748006802212D
:10028000084003900498401C04900398002803D170
:10029000224904988842F0D11F4800680221084092
:1002A000002802D00120039001E000200390039871
:1002B00001282FD11A48006802900298C008C00097
:1002C00002900221029808431549086012484068CC
:1002D0000190F0210198884301900F4901984860EE
:1002E0000846406800900721090200988843009062
:1002F00009490098486008464068800880004860C6
:1003000008464068486000BF034840680C21084028
:100310000028F9D105B0704700100240FFFF00002F
:10032000002002407047000010B50D480068012110
:1003300008430B490860084640680A4908400849D4
:1003400048600846006B1321884305490863002074
:100350008860FFF749FF00200349486310BD000093
:10036000001002401CB8FFF84020024002E008C81C
:10037000121F08C1002AFAD170477047002001E01F
:1003800001C1121F002AFBD1704700B50346B921F5
:1003900089005943084600F001F800BD810040186B
:1003A00000BF0146401E0029FBD170470EB5012158
:1003B000C804FFF707FF0121684601710021817120
:1003C0000120400300906846C171012141716946D6
:1003D0000148FFF79FFE0EBD000800480348406932
:1003E000012149034840014948617047000800481D
:1003F000FFF7DCFF06E00120FFF7C7FFFFF7EEFF86
:1004000000F001F8F7E700200AE0002102E000BF59
:100410004A1C91B2FF22F5329142F8DB421C90B2A5
:10042000FF22F5329042F0DB704700003C040008E8
:0C04300000000020000200007C03000817
:04000005080000C12E
:00000001FF
