:020000040800F2
:1000000000020020D5000008550200085102000837
:1000100000000000000000000000000000000000E0
:10002000000000000000000000000000BD02000809
:10003000000000000000000057020008FD03000857
:10004000E700000800000000E7000008E7000008E3
:10005000E7000008E7000008E7000008E7000008E4
:10006000E7000008E7000008E7000008E7000008D4
:10007000E7000008E7000008E7000008E7000008C4
:1000800000000000E7000008000000000000000081
:1000900000000000E7000008E7000008E700000893
:1000A00000000000E700000800000000E700000872
:1000B0000000000000000000000000000000000040
:1000C0000348854600F014F800480047650400081E
:1000D000000200200448804704480047FEE7FEE78E
:1000E000FEE7FEE7FEE7FEE701040008C1000008A6
:1000F000064C0125064E05E0E36807CC2B430C3C7B
:1001000098471034B442F7D3FFF7DEFFB804000875
:10011000C8040008F0B500220023002400BF3DE021
:10012000012595402B460D681D402C469C4234D13C
:100130000D79012D02D00D79022D16D18568570059
:100140000326BE40B54385604D795600B5408668AC
:1001500035438560456801269640B543456045684E
:100160008E799640B6B23543456005685700032640
:10017000BE40B54305600D795600B540066835436D
:100180000560C56857000326BE40B543C560CD79FC
:100190005600B540C6683543C560521C102ABFD30F
:1001A0000D7A002D04D1056B0E683543056303E01D
:1001B000056B0E68B5430563F0BDF0B50023002460
:1001C0004D07EE0E1546B5402B46CD10AE00054648
:1001D0002035AD594E07F70E0F26BE40B543CE1061
:1001E000B60007462037BD51CD10AE003D46AD5993
:1001F0001D432C46CD10AD003E467451F0BD0000AD
:100200000EB50121C80400F027F80121084600F0CE
:1002100033F810200090022168460171002181719D
:10022000C1710121417169460848FFF773FF05223A
:1002300004210648FFF7C1FF802000900121684695
:10024000017169460148FFF765FF0EBD00080048CF
:1002500000BFFEE770477047002905D0054A526984
:100260000243044B5A6104E0024A52698243014B43
:100270005A61704700100240002905D0054A926972
:100280000243044B9A6104E0024A92698243014BA3
:100290009A6170470010024010B502460020064BDC
:1002A00058687F2424060346A343184613060B43CD
:1002B0001843014B586010BD001002407047000009
:1002C000F8B50025002600270020009000240E48E5
:1002D000056A280C0090ACB20098204000280FD18D
:1002E0000A4807680A480740E006000E6105890EC3
:1002F0000902084306460548006830430349086080
:1003000000F008F8F8BD000000F8FF1F00100240E0
:100310000700FFFF85B00020049003900290019039
:100320000090334800680121084331490860304893
:10033000C030806A0F21C90288432D49C0318862CC
:100340000846806A0721C90208432949C0318862EA
:1003500000BF274800680221084003900498401C11
:1003600004900398002803D1224904988842F0D1D0
:100370001F48006802210840002802D00120039095
:1003800001E000200390039801282FD11A4800684B
:1003900002900298C008C00002900221029808430F
:1003A00015490860124840680190F021019888437F
:1003B00001900F4901984860084640680090072165
:1003C000090200988843009009490098486008464F
:1003D000406880088000486008464068486000BF68
:1003E000034840680C2108400028F9D105B0704747
:1003F00000100240FFFF0000002002407047000094
:1004000010B50D480068012108430B4908600846F3
:1004100040680A490840084948600846006B1321B3
:1004200088430549086300208860FFF749FF0020E2
:100430000349486310BD0000001002401CB8FFF8DB
:100440004020024002E008C8121F08C1002AFAD169
:1004500070477047002001E001C1121F002AFBD144
:100460007047000000F016F8FFF7CAFE00210420D4
:10047000FFF712FF0AE0002406E0002500E06D1CF3
:1004800003488542FBD3641C0A2CF6D3F3E7000033
:10049000FF0F000000200AE0002102E000BF4A1C1C
:1004A00091B27D22D2009142F8DB421C90B2FF2231
:1004B000F5329042F0DB7047C804000800000020CD
:0804C0000002000054040008D2
:04000005080000C12E
:00000001FF
